{
  "_format": "hh-sol-artifact-1",
  "contractName": "PetAdoption",
  "sourceName": "contracts/PetAdoption.sol",
  "abi": [
    {
      "inputs": [
        {
          "internalType": "uint256",
          "name": "initialPetIndex",
          "type": "uint256"
        }
      ],
      "stateMutability": "nonpayable",
      "type": "constructor"
    },
    {
      "inputs": [],
      "name": "addPet",
      "outputs": [],
      "stateMutability": "nonpayable",
      "type": "function"
    },
    {
      "inputs": [
        {
          "internalType": "uint256",
          "name": "adoptIdx",
          "type": "uint256"
        }
      ],
      "name": "adoptPet",
      "outputs": [],
      "stateMutability": "nonpayable",
      "type": "function"
    },
    {
      "inputs": [
        {
          "internalType": "uint256",
          "name": "",
          "type": "uint256"
        }
      ],
      "name": "allAdoptedPets",
      "outputs": [
        {
          "internalType": "uint256",
          "name": "",
          "type": "uint256"
        }
      ],
      "stateMutability": "view",
      "type": "function"
    },
    {
      "inputs": [],
      "name": "getAllAdoptedPets",
      "outputs": [
        {
          "internalType": "uint256[]",
          "name": "",
          "type": "uint256[]"
        }
      ],
      "stateMutability": "view",
      "type": "function"
    },
    {
      "inputs": [],
      "name": "getAllAdoptedPetsByOwner",
      "outputs": [
        {
          "internalType": "uint256[]",
          "name": "",
          "type": "uint256[]"
        }
      ],
      "stateMutability": "view",
      "type": "function"
    },
    {
      "inputs": [],
      "name": "getOwner",
      "outputs": [
        {
          "internalType": "address",
          "name": "",
          "type": "address"
        }
      ],
      "stateMutability": "view",
      "type": "function"
    },
    {
      "inputs": [],
      "name": "owner",
      "outputs": [
        {
          "internalType": "address",
          "name": "",
          "type": "address"
        }
      ],
      "stateMutability": "view",
      "type": "function"
    },
    {
      "inputs": [
        {
          "internalType": "address",
          "name": "",
          "type": "address"
        },
        {
          "internalType": "uint256",
          "name": "",
          "type": "uint256"
        }
      ],
      "name": "ownerAddressToPetList",
      "outputs": [
        {
          "internalType": "uint256",
          "name": "",
          "type": "uint256"
        }
      ],
      "stateMutability": "view",
      "type": "function"
    },
    {
      "inputs": [
        {
          "internalType": "uint256",
          "name": "",
          "type": "uint256"
        }
      ],
      "name": "petIdxToOwnerAddress",
      "outputs": [
        {
          "internalType": "address",
          "name": "",
          "type": "address"
        }
      ],
      "stateMutability": "view",
      "type": "function"
    },
    {
      "inputs": [],
      "name": "petIndex",
      "outputs": [
        {
          "internalType": "uint256",
          "name": "",
          "type": "uint256"
        }
      ],
      "stateMutability": "view",
      "type": "function"
    }
  ],
  "bytecode": "0x6080604052600060015534801561001557600080fd5b5060405161074b38038061074b8339810160408190526100349161004e565b600080546001600160a01b03191633179055600155610067565b60006020828403121561006057600080fd5b5051919050565b6106d5806100766000396000f3fe608060405234801561001057600080fd5b506004361061009e5760003560e01c8063893d20e811610066578063893d20e8146101045780638da5cb5b14610129578063a002a1351461013c578063b2421a321461014f578063f2d5a0551461017857600080fd5b806319b81577146100a357806330671a09146100b85780633ff4a0eb146100d457806346f43d43146100e95780635f5799ef146100f1575b600080fd5b6100b66100b1366004610551565b610180565b005b6100c160015481565b6040519081526020015b60405180910390f35b6100dc61030f565b6040516100cb919061056a565b6100b6610367565b6100c16100ff3660046105ae565b6103e9565b6000546001600160a01b03165b6040516001600160a01b0390911681526020016100cb565b600054610111906001600160a01b031681565b6100c161014a366004610551565b61041a565b61011161015d366004610551565b6003602052600090815260409020546001600160a01b031681565b6100dc61043b565b60015481106101d65760405162461bcd60e51b815260206004820152601860248201527f50657420696e646578206f7574206f6620626f756e647321000000000000000060448201526064015b60405180910390fd5b6000818152600360205260409020546001600160a01b0316156102345760405162461bcd60e51b815260206004820152601660248201527514195d081a5cc8185b1c9958591e4818591bdc1d195960521b60448201526064016101cd565b6102656040518060400160405280600f81526020016e020b23237b83a34b733903832ba1d1608d1b8152508261049a565b600081815260036020818152604080842080546001600160a01b031916339081179091558151808301909252600b82526a02732bb9027bbb732b91d160ad1b82840152938590529190526102b8916104e3565b33600090815260046020908152604082208054600181810183559184529183209091018390556002805491820181559091527f405787fa12a823e0f2b7631cc41b3ba8828b3321ca811111fa75cd3aa3bb5ace0155565b6060600280548060200260200160405190810160405280929190818152602001828054801561035d57602002820191906000526020600020905b815481526020019060010190808311610349575b5050505050905090565b6000546001600160a01b031633146103d25760405162461bcd60e51b815260206004820152602860248201527f4f6e6c79206120636f6e7472616374206f776e65722063616e206164642061206044820152676e6577207065742160c01b60648201526084016101cd565b600180549060006103e2836105e6565b9190505550565b6004602052816000526040600020818154811061040557600080fd5b90600052602060002001600091509150505481565b6002818154811061042a57600080fd5b600091825260209091200154905081565b3360009081526004602090815260409182902080548351818402810184019094528084526060939283018282801561035d5760200282019190600052602060002090815481526020019060010190808311610349575050505050905090565b6104df82826040516024016104b0929190610653565b60408051601f198184030181529190526020810180516001600160e01b0316632d839cb360e21b179052610524565b5050565b6104df82826040516024016104f9929190610675565b60408051601f198184030181529190526020810180516001600160e01b031663319af33360e01b1790525b61052d81610530565b50565b60006a636f6e736f6c652e6c6f679050600080835160208501845afa505050565b60006020828403121561056357600080fd5b5035919050565b6020808252825182820181905260009190848201906040850190845b818110156105a257835183529284019291840191600101610586565b50909695505050505050565b600080604083850312156105c157600080fd5b82356001600160a01b03811681146105d857600080fd5b946020939093013593505050565b60006001820161060657634e487b7160e01b600052601160045260246000fd5b5060010190565b6000815180845260005b8181101561063357602081850181015186830182015201610617565b506000602082860101526020601f19601f83011685010191505092915050565b604081526000610666604083018561060d565b90508260208301529392505050565b604081526000610688604083018561060d565b905060018060a01b0383166020830152939250505056fea2646970667358221220c3493118b55f71abc93aa01bd34d36de60470d58d4b1879c239bdfb3dfd0f8c764736f6c63430008130033",
  "linkReferences": {},
  "deployedLinkReferences": {}
}