{
  "_format": "hh-sol-artifact-1",
  "contractName": "PetAdoption",
  "sourceName": "contracts/PetAdoption.sol",
  "abi": [
    {
      "inputs": [
        {
          "internalType": "uint256",
          "name": "initialPetIndex",
          "type": "uint256"
        }
      ],
      "stateMutability": "nonpayable",
      "type": "constructor"
    },
    {
      "inputs": [],
      "name": "addPet",
      "outputs": [],
      "stateMutability": "nonpayable",
      "type": "function"
    },
    {
      "inputs": [
        {
          "internalType": "uint256",
          "name": "adoptIdx",
          "type": "uint256"
        }
      ],
      "name": "adoptPet",
      "outputs": [],
      "stateMutability": "nonpayable",
      "type": "function"
    },
    {
      "inputs": [
        {
          "internalType": "uint256",
          "name": "",
          "type": "uint256"
        }
      ],
      "name": "allAdoptedPets",
      "outputs": [
        {
          "internalType": "uint256",
          "name": "",
          "type": "uint256"
        }
      ],
      "stateMutability": "view",
      "type": "function"
    },
    {
      "inputs": [],
      "name": "getAllAdoptedPets",
      "outputs": [
        {
          "internalType": "uint256[]",
          "name": "",
          "type": "uint256[]"
        }
      ],
      "stateMutability": "view",
      "type": "function"
    },
    {
      "inputs": [],
      "name": "getAllAdoptedPetsByOwner",
      "outputs": [
        {
          "internalType": "uint256[]",
          "name": "",
          "type": "uint256[]"
        }
      ],
      "stateMutability": "view",
      "type": "function"
    },
    {
      "inputs": [],
      "name": "getOwner",
      "outputs": [
        {
          "internalType": "address",
          "name": "",
          "type": "address"
        }
      ],
      "stateMutability": "view",
      "type": "function"
    },
    {
      "inputs": [],
      "name": "owner",
      "outputs": [
        {
          "internalType": "address",
          "name": "",
          "type": "address"
        }
      ],
      "stateMutability": "view",
      "type": "function"
    },
    {
      "inputs": [
        {
          "internalType": "address",
          "name": "",
          "type": "address"
        },
        {
          "internalType": "uint256",
          "name": "",
          "type": "uint256"
        }
      ],
      "name": "ownerAddressToPetList",
      "outputs": [
        {
          "internalType": "uint256",
          "name": "",
          "type": "uint256"
        }
      ],
      "stateMutability": "view",
      "type": "function"
    },
    {
      "inputs": [
        {
          "internalType": "uint256",
          "name": "",
          "type": "uint256"
        }
      ],
      "name": "petIdxToOwnerAddress",
      "outputs": [
        {
          "internalType": "address",
          "name": "",
          "type": "address"
        }
      ],
      "stateMutability": "view",
      "type": "function"
    },
    {
      "inputs": [],
      "name": "petIndex",
      "outputs": [
        {
          "internalType": "uint256",
          "name": "",
          "type": "uint256"
        }
      ],
      "stateMutability": "view",
      "type": "function"
    }
  ],
  "bytecode": "0x6080604052600060015534801561001557600080fd5b50604051610ecd380380610ecd833981810160405281019061003791906100bf565b336000806101000a81548173ffffffffffffffffffffffffffffffffffffffff021916908373ffffffffffffffffffffffffffffffffffffffff16021790555080600181905550506100ec565b600080fd5b6000819050919050565b61009c81610089565b81146100a757600080fd5b50565b6000815190506100b981610093565b92915050565b6000602082840312156100d5576100d4610084565b5b60006100e3848285016100aa565b91505092915050565b610dd2806100fb6000396000f3fe608060405234801561001057600080fd5b506004361061009e5760003560e01c8063893d20e811610066578063893d20e8146101355780638da5cb5b14610153578063a002a13514610171578063b2421a32146101a1578063f2d5a055146101d15761009e565b806319b81577146100a357806330671a09146100bf5780633ff4a0eb146100dd57806346f43d43146100fb5780635f5799ef14610105575b600080fd5b6100bd60048036038101906100b8919061089d565b6101ef565b005b6100c761046a565b6040516100d491906108d9565b60405180910390f35b6100e5610470565b6040516100f291906109b2565b60405180910390f35b6101036104c8565b005b61011f600480360381019061011a9190610a32565b610570565b60405161012c91906108d9565b60405180910390f35b61013d6105a1565b60405161014a9190610a81565b60405180910390f35b61015b6105ca565b6040516101689190610a81565b60405180910390f35b61018b6004803603810190610186919061089d565b6105ee565b60405161019891906108d9565b60405180910390f35b6101bb60048036038101906101b6919061089d565b610612565b6040516101c89190610a81565b60405180910390f35b6101d9610645565b6040516101e691906109b2565b60405180910390f35b6001548110610233576040517f08c379a000000000000000000000000000000000000000000000000000000000815260040161022a90610af9565b60405180910390fd5b600073ffffffffffffffffffffffffffffffffffffffff166003600083815260200190815260200160002060009054906101000a900473ffffffffffffffffffffffffffffffffffffffff1673ffffffffffffffffffffffffffffffffffffffff16146102d5576040517f08c379a00000000000000000000000000000000000000000000000000000000081526004016102cc90610b65565b60405180910390fd5b6103146040518060400160405280600f81526020017f4164646f7074696e67207065743a200000000000000000000000000000000000815250826106da565b336003600083815260200190815260200160002060006101000a81548173ffffffffffffffffffffffffffffffffffffffff021916908373ffffffffffffffffffffffffffffffffffffffff1602179055506103d86040518060400160405280600b81526020017f4e6577204f776e65723a200000000000000000000000000000000000000000008152506003600084815260200190815260200160002060009054906101000a900473ffffffffffffffffffffffffffffffffffffffff16610776565b600460003373ffffffffffffffffffffffffffffffffffffffff1673ffffffffffffffffffffffffffffffffffffffff168152602001908152602001600020819080600181540180825580915050600190039060005260206000200160009091909190915055600281908060018154018082558091505060019003906000526020600020016000909190919091505550565b60015481565b606060028054806020026020016040519081016040528092919081815260200182805480156104be57602002820191906000526020600020905b8154815260200190600101908083116104aa575b5050505050905090565b60008054906101000a900473ffffffffffffffffffffffffffffffffffffffff1673ffffffffffffffffffffffffffffffffffffffff163373ffffffffffffffffffffffffffffffffffffffff1614610556576040517f08c379a000000000000000000000000000000000000000000000000000000000815260040161054d90610bf7565b60405180910390fd5b6001600081548092919061056990610c46565b9190505550565b6004602052816000526040600020818154811061058c57600080fd5b90600052602060002001600091509150505481565b60008060009054906101000a900473ffffffffffffffffffffffffffffffffffffffff16905090565b60008054906101000a900473ffffffffffffffffffffffffffffffffffffffff1681565b600281815481106105fe57600080fd5b906000526020600020016000915090505481565b60036020528060005260406000206000915054906101000a900473ffffffffffffffffffffffffffffffffffffffff1681565b6060600460003373ffffffffffffffffffffffffffffffffffffffff1673ffffffffffffffffffffffffffffffffffffffff1681526020019081526020016000208054806020026020016040519081016040528092919081815260200182805480156106d057602002820191906000526020600020905b8154815260200190600101908083116106bc575b5050505050905090565b61077282826040516024016106f0929190610d0d565b6040516020818303038152906040527fb60e72cc000000000000000000000000000000000000000000000000000000007bffffffffffffffffffffffffffffffffffffffffffffffffffffffff19166020820180517bffffffffffffffffffffffffffffffffffffffffffffffffffffffff8381831617835250505050610812565b5050565b61080e828260405160240161078c929190610d3d565b6040516020818303038152906040527f319af333000000000000000000000000000000000000000000000000000000007bffffffffffffffffffffffffffffffffffffffffffffffffffffffff19166020820180517bffffffffffffffffffffffffffffffffffffffffffffffffffffffff8381831617835250505050610812565b5050565b6108298161082161082c61084d565b63ffffffff16565b50565b60006a636f6e736f6c652e6c6f679050600080835160208501845afa505050565b610858819050919050565b610860610d6d565b565b600080fd5b6000819050919050565b61087a81610867565b811461088557600080fd5b50565b60008135905061089781610871565b92915050565b6000602082840312156108b3576108b2610862565b5b60006108c184828501610888565b91505092915050565b6108d381610867565b82525050565b60006020820190506108ee60008301846108ca565b92915050565b600081519050919050565b600082825260208201905092915050565b6000819050602082019050919050565b61092981610867565b82525050565b600061093b8383610920565b60208301905092915050565b6000602082019050919050565b600061095f826108f4565b61096981856108ff565b935061097483610910565b8060005b838110156109a557815161098c888261092f565b975061099783610947565b925050600181019050610978565b5085935050505092915050565b600060208201905081810360008301526109cc8184610954565b905092915050565b600073ffffffffffffffffffffffffffffffffffffffff82169050919050565b60006109ff826109d4565b9050919050565b610a0f816109f4565b8114610a1a57600080fd5b50565b600081359050610a2c81610a06565b92915050565b60008060408385031215610a4957610a48610862565b5b6000610a5785828601610a1d565b9250506020610a6885828601610888565b9150509250929050565b610a7b816109f4565b82525050565b6000602082019050610a966000830184610a72565b92915050565b600082825260208201905092915050565b7f50657420696e646578206f7574206f6620626f756e6473210000000000000000600082015250565b6000610ae3601883610a9c565b9150610aee82610aad565b602082019050919050565b60006020820190508181036000830152610b1281610ad6565b9050919050565b7f50657420697320616c72656164792061646f7074656400000000000000000000600082015250565b6000610b4f601683610a9c565b9150610b5a82610b19565b602082019050919050565b60006020820190508181036000830152610b7e81610b42565b9050919050565b7f4f6e6c79206120636f6e7472616374206f776e65722063616e2061646420612060008201527f6e65772070657421000000000000000000000000000000000000000000000000602082015250565b6000610be1602883610a9c565b9150610bec82610b85565b604082019050919050565b60006020820190508181036000830152610c1081610bd4565b9050919050565b7f4e487b7100000000000000000000000000000000000000000000000000000000600052601160045260246000fd5b6000610c5182610867565b91507fffffffffffffffffffffffffffffffffffffffffffffffffffffffffffffffff8203610c8357610c82610c17565b5b600182019050919050565b600081519050919050565b60005b83811015610cb7578082015181840152602081019050610c9c565b60008484015250505050565b6000601f19601f8301169050919050565b6000610cdf82610c8e565b610ce98185610a9c565b9350610cf9818560208601610c99565b610d0281610cc3565b840191505092915050565b60006040820190508181036000830152610d278185610cd4565b9050610d3660208301846108ca565b9392505050565b60006040820190508181036000830152610d578185610cd4565b9050610d666020830184610a72565b9392505050565b7f4e487b7100000000000000000000000000000000000000000000000000000000600052605160045260246000fdfea2646970667358221220369f7cfc123032d6ea9ec318e28f5b455037a94ac2de3d581789490efb6dda1464736f6c63430008130033",
  "linkReferences": {},
  "deployedLinkReferences": {}
}